{
  "_format": "hh-sol-artifact-1",
  "contractName": "AranGame",
  "sourceName": "contracts/AranGame.sol",
  "abi": [
    {
      "inputs": [],
      "stateMutability": "nonpayable",
      "type": "constructor"
    },
    {
      "inputs": [
        {
          "internalType": "address",
          "name": "sender",
          "type": "address"
        },
        {
          "internalType": "uint256",
          "name": "tokenId",
          "type": "uint256"
        },
        {
          "internalType": "address",
          "name": "owner",
          "type": "address"
        }
      ],
      "name": "ERC721IncorrectOwner",
      "type": "error"
    },
    {
      "inputs": [
        {
          "internalType": "address",
          "name": "operator",
          "type": "address"
        },
        {
          "internalType": "uint256",
          "name": "tokenId",
          "type": "uint256"
        }
      ],
      "name": "ERC721InsufficientApproval",
      "type": "error"
    },
    {
      "inputs": [
        {
          "internalType": "address",
          "name": "approver",
          "type": "address"
        }
      ],
      "name": "ERC721InvalidApprover",
      "type": "error"
    },
    {
      "inputs": [
        {
          "internalType": "address",
          "name": "operator",
          "type": "address"
        }
      ],
      "name": "ERC721InvalidOperator",
      "type": "error"
    },
    {
      "inputs": [
        {
          "internalType": "address",
          "name": "owner",
          "type": "address"
        }
      ],
      "name": "ERC721InvalidOwner",
      "type": "error"
    },
    {
      "inputs": [
        {
          "internalType": "address",
          "name": "receiver",
          "type": "address"
        }
      ],
      "name": "ERC721InvalidReceiver",
      "type": "error"
    },
    {
      "inputs": [
        {
          "internalType": "address",
          "name": "sender",
          "type": "address"
        }
      ],
      "name": "ERC721InvalidSender",
      "type": "error"
    },
    {
      "inputs": [
        {
          "internalType": "uint256",
          "name": "tokenId",
          "type": "uint256"
        }
      ],
      "name": "ERC721NonexistentToken",
      "type": "error"
    },
    {
      "inputs": [
        {
          "internalType": "address",
          "name": "owner",
          "type": "address"
        }
      ],
      "name": "OwnableInvalidOwner",
      "type": "error"
    },
    {
      "inputs": [
        {
          "internalType": "address",
          "name": "account",
          "type": "address"
        }
      ],
      "name": "OwnableUnauthorizedAccount",
      "type": "error"
    },
    {
      "anonymous": false,
      "inputs": [
        {
          "indexed": true,
          "internalType": "address",
          "name": "player",
          "type": "address"
        },
        {
          "indexed": false,
          "internalType": "enum AranGame.AchievementType",
          "name": "achievementType",
          "type": "uint8"
        },
        {
          "indexed": false,
          "internalType": "uint256",
          "name": "tokenId",
          "type": "uint256"
        }
      ],
      "name": "AchievementMinted",
      "type": "event"
    },
    {
      "anonymous": false,
      "inputs": [
        {
          "indexed": true,
          "internalType": "address",
          "name": "owner",
          "type": "address"
        },
        {
          "indexed": true,
          "internalType": "address",
          "name": "approved",
          "type": "address"
        },
        {
          "indexed": true,
          "internalType": "uint256",
          "name": "tokenId",
          "type": "uint256"
        }
      ],
      "name": "Approval",
      "type": "event"
    },
    {
      "anonymous": false,
      "inputs": [
        {
          "indexed": true,
          "internalType": "address",
          "name": "owner",
          "type": "address"
        },
        {
          "indexed": true,
          "internalType": "address",
          "name": "operator",
          "type": "address"
        },
        {
          "indexed": false,
          "internalType": "bool",
          "name": "approved",
          "type": "bool"
        }
      ],
      "name": "ApprovalForAll",
      "type": "event"
    },
    {
      "anonymous": false,
      "inputs": [
        {
          "indexed": false,
          "internalType": "uint256",
          "name": "_fromTokenId",
          "type": "uint256"
        },
        {
          "indexed": false,
          "internalType": "uint256",
          "name": "_toTokenId",
          "type": "uint256"
        }
      ],
      "name": "BatchMetadataUpdate",
      "type": "event"
    },
    {
      "anonymous": false,
      "inputs": [
        {
          "indexed": false,
          "internalType": "uint256",
          "name": "_tokenId",
          "type": "uint256"
        }
      ],
      "name": "MetadataUpdate",
      "type": "event"
    },
    {
      "anonymous": false,
      "inputs": [
        {
          "indexed": true,
          "internalType": "address",
          "name": "previousOwner",
          "type": "address"
        },
        {
          "indexed": true,
          "internalType": "address",
          "name": "newOwner",
          "type": "address"
        }
      ],
      "name": "OwnershipTransferred",
      "type": "event"
    },
    {
      "anonymous": false,
      "inputs": [
        {
          "indexed": true,
          "internalType": "address",
          "name": "player",
          "type": "address"
        },
        {
          "indexed": false,
          "internalType": "uint256",
          "name": "score",
          "type": "uint256"
        },
        {
          "indexed": false,
          "internalType": "uint256",
          "name": "rank",
          "type": "uint256"
        }
      ],
      "name": "ScoreSubmitted",
      "type": "event"
    },
    {
      "anonymous": false,
      "inputs": [
        {
          "indexed": true,
          "internalType": "address",
          "name": "from",
          "type": "address"
        },
        {
          "indexed": true,
          "internalType": "address",
          "name": "to",
          "type": "address"
        },
        {
          "indexed": true,
          "internalType": "uint256",
          "name": "tokenId",
          "type": "uint256"
        }
      ],
      "name": "Transfer",
      "type": "event"
    },
    {
      "inputs": [],
      "name": "MAX_LEADERBOARD_SIZE",
      "outputs": [
        {
          "internalType": "uint256",
          "name": "",
          "type": "uint256"
        }
      ],
      "stateMutability": "view",
      "type": "function"
    },
    {
      "inputs": [
        {
          "internalType": "uint256",
          "name": "",
          "type": "uint256"
        }
      ],
      "name": "achievementURIs",
      "outputs": [
        {
          "internalType": "string",
          "name": "",
          "type": "string"
        }
      ],
      "stateMutability": "view",
      "type": "function"
    },
    {
      "inputs": [
        {
          "internalType": "address",
          "name": "to",
          "type": "address"
        },
        {
          "internalType": "uint256",
          "name": "tokenId",
          "type": "uint256"
        }
      ],
      "name": "approve",
      "outputs": [],
      "stateMutability": "nonpayable",
      "type": "function"
    },
    {
      "inputs": [
        {
          "internalType": "address",
          "name": "owner",
          "type": "address"
        }
      ],
      "name": "balanceOf",
      "outputs": [
        {
          "internalType": "uint256",
          "name": "",
          "type": "uint256"
        }
      ],
      "stateMutability": "view",
      "type": "function"
    },
    {
      "inputs": [
        {
          "internalType": "uint256",
          "name": "tokenId",
          "type": "uint256"
        }
      ],
      "name": "getApproved",
      "outputs": [
        {
          "internalType": "address",
          "name": "",
          "type": "address"
        }
      ],
      "stateMutability": "view",
      "type": "function"
    },
    {
      "inputs": [
        {
          "internalType": "uint256",
          "name": "offset",
          "type": "uint256"
        },
        {
          "internalType": "uint256",
          "name": "limit",
          "type": "uint256"
        }
      ],
      "name": "getLeaderboard",
      "outputs": [
        {
          "internalType": "address[]",
          "name": "players",
          "type": "address[]"
        },
        {
          "internalType": "uint256[]",
          "name": "scores",
          "type": "uint256[]"
        },
        {
          "internalType": "uint256[]",
          "name": "timestamps",
          "type": "uint256[]"
        }
      ],
      "stateMutability": "view",
      "type": "function"
    },
    {
      "inputs": [],
      "name": "getLeaderboardSize",
      "outputs": [
        {
          "internalType": "uint256",
          "name": "",
          "type": "uint256"
        }
      ],
      "stateMutability": "view",
      "type": "function"
    },
    {
      "inputs": [
        {
          "internalType": "address",
          "name": "player",
          "type": "address"
        }
      ],
      "name": "getPlayerStats",
      "outputs": [
        {
          "internalType": "uint256",
          "name": "highScore",
          "type": "uint256"
        },
        {
          "internalType": "uint256",
          "name": "totalGamesPlayed",
          "type": "uint256"
        },
        {
          "internalType": "uint256",
          "name": "lastPlayed",
          "type": "uint256"
        },
        {
          "internalType": "bool[5]",
          "name": "achievements",
          "type": "bool[5]"
        }
      ],
      "stateMutability": "view",
      "type": "function"
    },
    {
      "inputs": [
        {
          "internalType": "address",
          "name": "player",
          "type": "address"
        },
        {
          "internalType": "enum AranGame.AchievementType",
          "name": "achievementType",
          "type": "uint8"
        }
      ],
      "name": "hasAchievement",
      "outputs": [
        {
          "internalType": "bool",
          "name": "",
          "type": "bool"
        }
      ],
      "stateMutability": "view",
      "type": "function"
    },
    {
      "inputs": [
        {
          "internalType": "address",
          "name": "owner",
          "type": "address"
        },
        {
          "internalType": "address",
          "name": "operator",
          "type": "address"
        }
      ],
      "name": "isApprovedForAll",
      "outputs": [
        {
          "internalType": "bool",
          "name": "",
          "type": "bool"
        }
      ],
      "stateMutability": "view",
      "type": "function"
    },
    {
      "inputs": [
        {
          "internalType": "address",
          "name": "",
          "type": "address"
        }
      ],
      "name": "isOnLeaderboard",
      "outputs": [
        {
          "internalType": "bool",
          "name": "",
          "type": "bool"
        }
      ],
      "stateMutability": "view",
      "type": "function"
    },
    {
      "inputs": [
        {
          "internalType": "uint256",
          "name": "",
          "type": "uint256"
        }
      ],
      "name": "leaderboard",
      "outputs": [
        {
          "internalType": "address",
          "name": "player",
          "type": "address"
        },
        {
          "internalType": "uint256",
          "name": "score",
          "type": "uint256"
        },
        {
          "internalType": "uint256",
          "name": "timestamp",
          "type": "uint256"
        }
      ],
      "stateMutability": "view",
      "type": "function"
    },
    {
      "inputs": [
        {
          "internalType": "enum AranGame.AchievementType",
          "name": "achievementType",
          "type": "uint8"
        }
      ],
      "name": "mintAchievement",
      "outputs": [],
      "stateMutability": "nonpayable",
      "type": "function"
    },
    {
      "inputs": [],
      "name": "name",
      "outputs": [
        {
          "internalType": "string",
          "name": "",
          "type": "string"
        }
      ],
      "stateMutability": "view",
      "type": "function"
    },
    {
      "inputs": [],
      "name": "owner",
      "outputs": [
        {
          "internalType": "address",
          "name": "",
          "type": "address"
        }
      ],
      "stateMutability": "view",
      "type": "function"
    },
    {
      "inputs": [
        {
          "internalType": "uint256",
          "name": "tokenId",
          "type": "uint256"
        }
      ],
      "name": "ownerOf",
      "outputs": [
        {
          "internalType": "address",
          "name": "",
          "type": "address"
        }
      ],
      "stateMutability": "view",
      "type": "function"
    },
    {
      "inputs": [
        {
          "internalType": "address",
          "name": "",
          "type": "address"
        }
      ],
      "name": "playerLeaderboardIndex",
      "outputs": [
        {
          "internalType": "uint256",
          "name": "",
          "type": "uint256"
        }
      ],
      "stateMutability": "view",
      "type": "function"
    },
    {
      "inputs": [],
      "name": "renounceOwnership",
      "outputs": [],
      "stateMutability": "nonpayable",
      "type": "function"
    },
    {
      "inputs": [
        {
          "internalType": "address",
          "name": "from",
          "type": "address"
        },
        {
          "internalType": "address",
          "name": "to",
          "type": "address"
        },
        {
          "internalType": "uint256",
          "name": "tokenId",
          "type": "uint256"
        }
      ],
      "name": "safeTransferFrom",
      "outputs": [],
      "stateMutability": "nonpayable",
      "type": "function"
    },
    {
      "inputs": [
        {
          "internalType": "address",
          "name": "from",
          "type": "address"
        },
        {
          "internalType": "address",
          "name": "to",
          "type": "address"
        },
        {
          "internalType": "uint256",
          "name": "tokenId",
          "type": "uint256"
        },
        {
          "internalType": "bytes",
          "name": "data",
          "type": "bytes"
        }
      ],
      "name": "safeTransferFrom",
      "outputs": [],
      "stateMutability": "nonpayable",
      "type": "function"
    },
    {
      "inputs": [
        {
          "internalType": "enum AranGame.AchievementType",
          "name": "achievementType",
          "type": "uint8"
        },
        {
          "internalType": "string",
          "name": "uri",
          "type": "string"
        }
      ],
      "name": "setAchievementURI",
      "outputs": [],
      "stateMutability": "nonpayable",
      "type": "function"
    },
    {
      "inputs": [
        {
          "internalType": "address",
          "name": "operator",
          "type": "address"
        },
        {
          "internalType": "bool",
          "name": "approved",
          "type": "bool"
        }
      ],
      "name": "setApprovalForAll",
      "outputs": [],
      "stateMutability": "nonpayable",
      "type": "function"
    },
    {
      "inputs": [
        {
          "internalType": "uint256",
          "name": "score",
          "type": "uint256"
        }
      ],
      "name": "submitScore",
      "outputs": [],
      "stateMutability": "nonpayable",
      "type": "function"
    },
    {
      "inputs": [
        {
          "internalType": "bytes4",
          "name": "interfaceId",
          "type": "bytes4"
        }
      ],
      "name": "supportsInterface",
      "outputs": [
        {
          "internalType": "bool",
          "name": "",
          "type": "bool"
        }
      ],
      "stateMutability": "view",
      "type": "function"
    },
    {
      "inputs": [],
      "name": "symbol",
      "outputs": [
        {
          "internalType": "string",
          "name": "",
          "type": "string"
        }
      ],
      "stateMutability": "view",
      "type": "function"
    },
    {
      "inputs": [
        {
          "internalType": "uint256",
          "name": "tokenId",
          "type": "uint256"
        }
      ],
      "name": "tokenURI",
      "outputs": [
        {
          "internalType": "string",
          "name": "",
          "type": "string"
        }
      ],
      "stateMutability": "view",
      "type": "function"
    },
    {
      "inputs": [
        {
          "internalType": "address",
          "name": "from",
          "type": "address"
        },
        {
          "internalType": "address",
          "name": "to",
          "type": "address"
        },
        {
          "internalType": "uint256",
          "name": "tokenId",
          "type": "uint256"
        }
      ],
      "name": "transferFrom",
      "outputs": [],
      "stateMutability": "nonpayable",
      "type": "function"
    },
    {
      "inputs": [
        {
          "internalType": "address",
          "name": "newOwner",
          "type": "address"
        }
      ],
      "name": "transferOwnership",
      "outputs": [],
      "stateMutability": "nonpayable",
      "type": "function"
    }
  ],
  "bytecode": "0x60806040523480156200001157600080fd5b5033604051806040016040528060118152602001704152414e20416368696576656d656e747360781b8152506040518060400160405280600481526020016320a920a760e11b81525081600090816200006b919062000309565b5060016200007a828262000309565b5050506001600160a01b038116620000ac57604051631e4fbdf760e01b81526000600482015260240160405180910390fd5b620000b78162000212565b5060408051808201909152601581527f697066733a2f2f516d426f6f74436f6d706c65746500000000000000000000006020820152600d90620000fb908262000309565b5060408051808201909152601681527f697066733a2f2f516d477261766974794d6173746572000000000000000000006020820152600e906200013f908262000309565b5060408051808201909152601381527f697066733a2f2f516d537065656444656d6f6e000000000000000000000000006020820152600f9062000183908262000309565b5060408051808201909152601681527f697066733a2f2f516d4368616f735375727669766f72000000000000000000006020820152601090620001c7908262000309565b5060408051808201909152601681527f697066733a2f2f516d466163746f72794573636170650000000000000000000060208201526011906200020b908262000309565b50620003d5565b600780546001600160a01b038381166001600160a01b0319831681179093556040519116919082907f8be0079c531659141344cd1fd0a4f28419497f9722a3daafe3b4186f6b6457e090600090a35050565b634e487b7160e01b600052604160045260246000fd5b600181811c908216806200028f57607f821691505b602082108103620002b057634e487b7160e01b600052602260045260246000fd5b50919050565b601f8211156200030457600081815260208120601f850160051c81016020861015620002df5750805b601f850160051c820191505b818110156200030057828155600101620002eb565b5050505b505050565b81516001600160401b0381111562000325576200032562000264565b6200033d816200033684546200027a565b84620002b6565b602080601f8311600181146200037557600084156200035c5750858301515b600019600386901b1c1916600185901b17855562000300565b600085815260208120601f198616915b82811015620003a65788860151825594840194600190910190840162000385565b5085821015620003c55787850151600019600388901b60f8161c191681555b5050505050600190811b01905550565b61228980620003e56000396000f3fe608060405234801561001057600080fd5b50600436106101c45760003560e01c806373af16fc116100f9578063aff0b29711610097578063c87b56dd11610071578063c87b56dd1461040a578063db8771421461041d578063e985e9c514610425578063f2fde38b1461043857600080fd5b8063aff0b297146103ac578063b88d4fde146103bf578063bf368399146103d257600080fd5b806395d89b41116100d357806395d89b411461036b578063a22cb46514610373578063aad5703214610386578063ab63cbb71461039957600080fd5b806373af16fc146103155780638da5cb5b14610337578063912d2c181461034857600080fd5b806323b872dd116101665780634fd66eae116101405780634fd66eae146102c45780636352211e146102e757806370a08231146102fa578063715018a61461030d57600080fd5b806323b872dd1461028b57806342842e0e1461029e57806345fd14b0146102b157600080fd5b8063095ea7b3116101a2578063095ea7b3146102315780631b3e4db1146102465780631f725d9c14610258578063214ec30b1461026b57600080fd5b806301ffc9a7146101c957806306fdde03146101f1578063081812fc14610206575b600080fd5b6101dc6101d7366004611b5d565b61044b565b60405190151581526020015b60405180910390f35b6101f961045c565b6040516101e89190611bca565b610219610214366004611bdd565b6104ee565b6040516001600160a01b0390911681526020016101e8565b61024461023f366004611c12565b610517565b005b6009545b6040519081526020016101e8565b610244610266366004611c4b565b610526565b61024a610279366004611c66565b600b6020526000908152604090205481565b610244610299366004611c81565b61073c565b6102446102ac366004611c81565b6107c7565b6101dc6102bf366004611cbd565b6107e7565b6102d76102d2366004611c66565b610841565b6040516101e89493929190611cf0565b6102196102f5366004611bdd565b610909565b61024a610308366004611c66565b610914565b61024461095c565b610328610323366004611d3d565b610970565b6040516101e893929190611d9a565b6007546001600160a01b0316610219565b6101dc610356366004611c66565b600c6020526000908152604090205460ff1681565b6101f9610b70565b610244610381366004611e0f565b610b7f565b610244610394366004611ed7565b610b8a565b6101f96103a7366004611bdd565b610bc3565b6102446103ba366004611bdd565b610c63565b6102446103cd366004611f39565b610ca4565b6103e56103e0366004611bdd565b610cbb565b604080516001600160a01b0390941684526020840192909252908201526060016101e8565b6101f9610418366004611bdd565b610cf8565b61024a606481565b6101dc610433366004611fb5565b610d03565b610244610446366004611c66565b610d31565b600061045682610d6f565b92915050565b60606000805461046b90611fdf565b80601f016020809104026020016040519081016040528092919081815260200182805461049790611fdf565b80156104e45780601f106104b9576101008083540402835291602001916104e4565b820191906000526020600020905b8154815290600101906020018083116104c757829003601f168201915b5050505050905090565b60006104f982610d94565b506000828152600460205260409020546001600160a01b0316610456565b610522828233610dcd565b5050565b336000908152600a602052604081206003019082600481111561054b5761054b612019565b600481111561055c5761055c612019565b815260208101919091526040016000205460ff16156105c25760405162461bcd60e51b815260206004820152601a60248201527f416368696576656d656e7420616c7265616479206d696e74656400000000000060448201526064015b60405180910390fd5b336000908152600a602052604081206001916003909101908360048111156105ec576105ec612019565b60048111156105fd576105fd612019565b815260208101919091526040016000908120805460ff19169215159290921790915560088054908261062e83612045565b91905055905061063e3382610dda565b6106f581600d84600481111561065657610656612019565b600581106106665761066661205e565b01805461067290611fdf565b80601f016020809104026020016040519081016040528092919081815260200182805461069e90611fdf565b80156106eb5780601f106106c0576101008083540402835291602001916106eb565b820191906000526020600020905b8154815290600101906020018083116106ce57829003601f168201915b5050505050610df4565b336001600160a01b03167fa5a9e557687360755905025b2d45e3535cbdeab011b2427e913c4b3591c1d7a48383604051610730929190612074565b60405180910390a25050565b6001600160a01b03821661076657604051633250574960e11b8152600060048201526024016105b9565b6000610773838333610e44565b9050836001600160a01b0316816001600160a01b0316146107c1576040516364283d7b60e01b81526001600160a01b03808616600483015260248201849052821660448201526064016105b9565b50505050565b6107e283838360405180602001604052806000815250610ca4565b505050565b6001600160a01b0382166000908152600a602052604081206003018183600481111561081557610815612019565b600481111561082657610826612019565b815260208101919091526040016000205460ff169392505050565b600080600061084e611b29565b6001600160a01b0385166000908152600a6020526040812080546001820154600283015491975095509350905b60058110156109005781600301600082600481111561089c5761089c612019565b60048111156108ad576108ad612019565b60048111156108be576108be612019565b815260208101919091526040016000205460ff168382600581106108e4576108e461205e565b91151560209092020152806108f881612045565b91505061087b565b50509193509193565b600061045682610d94565b60006001600160a01b038216610940576040516322718ad960e21b8152600060048201526024016105b9565b506001600160a01b031660009081526003602052604090205490565b610964610f3d565b61096e6000610f6a565b565b60608080600061098085876120a0565b60095490915081111561099257506009545b600061099e87836120b3565b90508067ffffffffffffffff8111156109b9576109b9611e4b565b6040519080825280602002602001820160405280156109e2578160200160208202803683370190505b5094508067ffffffffffffffff8111156109fe576109fe611e4b565b604051908082528060200260200182016040528015610a27578160200160208202803683370190505b5093508067ffffffffffffffff811115610a4357610a43611e4b565b604051908082528060200260200182016040528015610a6c578160200160208202803683370190505b50925060005b81811015610b665760006009610a88838b6120a0565b81548110610a9857610a9861205e565b600091825260209182902060408051606081018252600390930290910180546001600160a01b031680845260018201549484019490945260020154908201528851909250889084908110610aee57610aee61205e565b60200260200101906001600160a01b031690816001600160a01b0316815250508060200151868381518110610b2557610b2561205e565b6020026020010181815250508060400151858381518110610b4857610b4861205e565b60209081029190910101525080610b5e81612045565b915050610a72565b5050509250925092565b60606001805461046b90611fdf565b610522338383610fbc565b610b92610f3d565b80600d836004811115610ba757610ba7612019565b60058110610bb757610bb761205e565b01906107e29082612114565b600d8160058110610bd357600080fd5b018054909150610be290611fdf565b80601f0160208091040260200160405190810160405280929190818152602001828054610c0e90611fdf565b8015610c5b5780601f10610c3057610100808354040283529160200191610c5b565b820191906000526020600020905b815481529060010190602001808311610c3e57829003601f168201915b505050505081565b336000908152600a602052604081206001810180549192610c8383612045565b9091555050426002820155805482111561052257818155610522338361105b565b610caf84848461073c565b6107c184848484611360565b60098181548110610ccb57600080fd5b60009182526020909120600390910201805460018201546002909201546001600160a01b03909116925083565b606061045682611489565b6001600160a01b03918216600090815260056020908152604080832093909416825291909152205460ff1690565b610d39610f3d565b6001600160a01b038116610d6357604051631e4fbdf760e01b8152600060048201526024016105b9565b610d6c81610f6a565b50565b60006001600160e01b03198216632483248360e11b148061045657506104568261159a565b6000818152600260205260408120546001600160a01b03168061045657604051637e27328960e01b8152600481018490526024016105b9565b6107e283838360016115ea565b6105228282604051806020016040528060008152506116f0565b6000828152600660205260409020610e0c8282612114565b506040518281527ff8e1a15aba9398e019f0b49df1a4fde98ee17ae345cb5f6b5e2c27f5033e8ce79060200160405180910390a15050565b6000828152600260205260408120546001600160a01b0390811690831615610e7157610e71818486611707565b6001600160a01b03811615610eaf57610e8e6000856000806115ea565b6001600160a01b038116600090815260036020526040902080546000190190555b6001600160a01b03851615610ede576001600160a01b0385166000908152600360205260409020805460010190555b60008481526002602052604080822080546001600160a01b0319166001600160a01b0389811691821790925591518793918516917fddf252ad1be2c89b69c2b068fc378daa952ba7f163c4a11628f55a4df523b3ef91a4949350505050565b6007546001600160a01b0316331461096e5760405163118cdaa760e01b81523360048201526024016105b9565b600780546001600160a01b038381166001600160a01b0319831681179093556040519116919082907f8be0079c531659141344cd1fd0a4f28419497f9722a3daafe3b4186f6b6457e090600090a35050565b6001600160a01b038216610fee57604051630b61174360e31b81526001600160a01b03831660048201526024016105b9565b6001600160a01b03838116600081815260056020908152604080832094871680845294825291829020805460ff191686151590811790915591519182527f17307eab39ab6107e8899845ad3d59bd9653f200f220920489ca2b5937696c31910160405180910390a3505050565b6001600160a01b0382166000908152600c602052604090205460ff16156110f0576001600160a01b0382166000908152600b602052604090205460098054839190839081106110ac576110ac61205e565b90600052602060002090600302016001018190555042600982815481106110d5576110d561205e565b90600052602060002090600302016002018190555050611309565b600954606411156111e857600980546001600160a01b038481166000818152600b6020908152604080832095909555600c81528482208054600160ff199091168117909155855160608101875293845290830187815242958401958652865491820187559590915290517f6e1540171b6c0c960b71a7020d9f60077f6af931a8bbf590da0223dacf75c7af600390920291820180546001600160a01b031916919093161790915591517f6e1540171b6c0c960b71a7020d9f60077f6af931a8bbf590da0223dacf75c7b0830155517f6e1540171b6c0c960b71a7020d9f60077f6af931a8bbf590da0223dacf75c7b190910155611309565b60006111f261176b565b9050600981815481106112075761120761205e565b906000526020600020906003020160010154821115611307576000600982815481106112355761123561205e565b600091825260208083206003909202909101546001600160a01b03908116808452600c8352604093849020805460ff1916905583516060810185529188168252918101869052429281019290925260098054919350908490811061129b5761129b61205e565b6000918252602080832084516003939093020180546001600160a01b0319166001600160a01b03938416178155848201516001808301919091556040958601516002909201919091559188168352600b8152838320869055600c9052919020805460ff19169091179055505b505b60006113148261181e565b60408051848152602081018390529192506001600160a01b038516917fb7f20d0949b6a8bc59d005af4a52f7ff5d0cfcde9056fa556adb0e4b24dcb6d2910160405180910390a2505050565b6001600160a01b0383163b156107c157604051630a85bd0160e11b81526001600160a01b0384169063150b7a02906113a29033908890879087906004016121d4565b6020604051808303816000875af19250505080156113dd575060408051601f3d908101601f191682019092526113da91810190612207565b60015b611446573d80801561140b576040519150601f19603f3d011682016040523d82523d6000602084013e611410565b606091505b50805160000361143e57604051633250574960e11b81526001600160a01b03851660048201526024016105b9565b805181602001fd5b6001600160e01b03198116630a85bd0160e11b1461148257604051633250574960e11b81526001600160a01b03851660048201526024016105b9565b5050505050565b606061149482610d94565b50600082815260066020526040812080546114ae90611fdf565b80601f01602080910402602001604051908101604052809291908181526020018280546114da90611fdf565b80156115275780601f106114fc57610100808354040283529160200191611527565b820191906000526020600020905b81548152906001019060200180831161150a57829003601f168201915b50505050509050600061154560408051602081019091526000815290565b90508051600003611557575092915050565b815115611589578082604051602001611571929190612224565b60405160208183030381529060405292505050919050565b61159284611881565b949350505050565b60006001600160e01b031982166380ac58cd60e01b14806115cb57506001600160e01b03198216635b5e139f60e01b145b8061045657506301ffc9a760e01b6001600160e01b0319831614610456565b80806115fe57506001600160a01b03821615155b156116c057600061160e84610d94565b90506001600160a01b0383161580159061163a5750826001600160a01b0316816001600160a01b031614155b801561164d575061164b8184610d03565b155b156116765760405163a9fbf51f60e01b81526001600160a01b03841660048201526024016105b9565b81156116be5783856001600160a01b0316826001600160a01b03167f8c5be1e5ebec7d5bd14f71427d1e84f3dd0314c0f7b2291e5b200ac8c7c3b92560405160405180910390a45b505b5050600090815260046020526040902080546001600160a01b0319166001600160a01b0392909216919091179055565b6116fa83836118f6565b6107e26000848484611360565b61171283838361195b565b6107e2576001600160a01b03831661174057604051637e27328960e01b8152600481018290526024016105b9565b60405163177e802f60e01b81526001600160a01b0383166004820152602481018290526044016105b9565b60008060009050600060096000815481106117885761178861205e565b90600052602060002090600302016001015490506000600190505b6009548110156118165781600982815481106117c1576117c161205e565b906000526020600020906003020160010154101561180457600981815481106117ec576117ec61205e565b90600052602060002090600302016001015491508092505b8061180e81612045565b9150506117a3565b509092915050565b60006001815b60095481101561187a5783600982815481106118425761184261205e565b9060005260206000209060030201600101541115611868578161186481612045565b9250505b8061187281612045565b915050611824565b5092915050565b606061188c82610d94565b5060006118a460408051602081019091526000815290565b905060008151116118c457604051806020016040528060008152506118ef565b806118ce846119be565b6040516020016118df929190612224565b6040516020818303038152906040525b9392505050565b6001600160a01b03821661192057604051633250574960e11b8152600060048201526024016105b9565b600061192e83836000610e44565b90506001600160a01b038116156107e2576040516339e3563760e11b8152600060048201526024016105b9565b60006001600160a01b038316158015906115925750826001600160a01b0316846001600160a01b0316148061199557506119958484610d03565b806115925750506000908152600460205260409020546001600160a01b03908116911614919050565b606060006119cb83611a51565b600101905060008167ffffffffffffffff8111156119eb576119eb611e4b565b6040519080825280601f01601f191660200182016040528015611a15576020820181803683370190505b5090508181016020015b600019016f181899199a1a9b1b9c1cb0b131b232b360811b600a86061a8153600a8504945084611a1f57509392505050565b60008072184f03e93ff9f4daa797ed6e38ed64bf6a1f0160401b8310611a905772184f03e93ff9f4daa797ed6e38ed64bf6a1f0160401b830492506040015b6d04ee2d6d415b85acef81000000008310611abc576d04ee2d6d415b85acef8100000000830492506020015b662386f26fc100008310611ada57662386f26fc10000830492506010015b6305f5e1008310611af2576305f5e100830492506008015b6127108310611b0657612710830492506004015b60648310611b18576064830492506002015b600a83106104565760010192915050565b6040518060a001604052806005906020820280368337509192915050565b6001600160e01b031981168114610d6c57600080fd5b600060208284031215611b6f57600080fd5b81356118ef81611b47565b60005b83811015611b95578181015183820152602001611b7d565b50506000910152565b60008151808452611bb6816020860160208601611b7a565b601f01601f19169290920160200192915050565b6020815260006118ef6020830184611b9e565b600060208284031215611bef57600080fd5b5035919050565b80356001600160a01b0381168114611c0d57600080fd5b919050565b60008060408385031215611c2557600080fd5b611c2e83611bf6565b946020939093013593505050565b803560058110611c0d57600080fd5b600060208284031215611c5d57600080fd5b6118ef82611c3c565b600060208284031215611c7857600080fd5b6118ef82611bf6565b600080600060608486031215611c9657600080fd5b611c9f84611bf6565b9250611cad60208501611bf6565b9150604084013590509250925092565b60008060408385031215611cd057600080fd5b611cd983611bf6565b9150611ce760208401611c3c565b90509250929050565b60006101008201905085825260208581840152846040840152606083018460005b6005811015611d30578151151583529183019190830190600101611d11565b5050505095945050505050565b60008060408385031215611d5057600080fd5b50508035926020909101359150565b600081518084526020808501945080840160005b83811015611d8f57815187529582019590820190600101611d73565b509495945050505050565b606080825284519082018190526000906020906080840190828801845b82811015611ddc5781516001600160a01b031684529284019290840190600101611db7565b50505083810382850152611df08187611d5f565b9150508281036040840152611e058185611d5f565b9695505050505050565b60008060408385031215611e2257600080fd5b611e2b83611bf6565b915060208301358015158114611e4057600080fd5b809150509250929050565b634e487b7160e01b600052604160045260246000fd5b600067ffffffffffffffff80841115611e7c57611e7c611e4b565b604051601f8501601f19908116603f01168101908282118183101715611ea457611ea4611e4b565b81604052809350858152868686011115611ebd57600080fd5b858560208301376000602087830101525050509392505050565b60008060408385031215611eea57600080fd5b611ef383611c3c565b9150602083013567ffffffffffffffff811115611f0f57600080fd5b8301601f81018513611f2057600080fd5b611f2f85823560208401611e61565b9150509250929050565b60008060008060808587031215611f4f57600080fd5b611f5885611bf6565b9350611f6660208601611bf6565b925060408501359150606085013567ffffffffffffffff811115611f8957600080fd5b8501601f81018713611f9a57600080fd5b611fa987823560208401611e61565b91505092959194509250565b60008060408385031215611fc857600080fd5b611fd183611bf6565b9150611ce760208401611bf6565b600181811c90821680611ff357607f821691505b60208210810361201357634e487b7160e01b600052602260045260246000fd5b50919050565b634e487b7160e01b600052602160045260246000fd5b634e487b7160e01b600052601160045260246000fd5b6000600182016120575761205761202f565b5060010190565b634e487b7160e01b600052603260045260246000fd5b604081016005841061209657634e487b7160e01b600052602160045260246000fd5b9281526020015290565b808201808211156104565761045661202f565b818103818111156104565761045661202f565b601f8211156107e257600081815260208120601f850160051c810160208610156120ed5750805b601f850160051c820191505b8181101561210c578281556001016120f9565b505050505050565b815167ffffffffffffffff81111561212e5761212e611e4b565b6121428161213c8454611fdf565b846120c6565b602080601f831160018114612177576000841561215f5750858301515b600019600386901b1c1916600185901b17855561210c565b600085815260208120601f198616915b828110156121a657888601518255948401946001909101908401612187565b50858210156121c45787850151600019600388901b60f8161c191681555b5050505050600190811b01905550565b6001600160a01b0385811682528416602082015260408101839052608060608201819052600090611e0590830184611b9e565b60006020828403121561221957600080fd5b81516118ef81611b47565b60008351612236818460208801611b7a565b83519083019061224a818360208801611b7a565b0194935050505056fea264697066735822122094b1c9939503b05ddbac358364732e05bca2071d41990ab5e4056ed7b9aad45164736f6c63430008140033",
  "linkReferences": {},
  "deployedLinkReferences": {}
}